{
  "contractName": "Auth",
  "abi": [
    {
      "constant": true,
      "inputs": [
        {
          "internalType": "string",
          "name": "",
          "type": "string"
        }
      ],
      "name": "users",
      "outputs": [
        {
          "internalType": "string",
          "name": "name",
          "type": "string"
        },
        {
          "internalType": "string",
          "name": "password",
          "type": "string"
        },
        {
          "internalType": "address",
          "name": "wallet_address",
          "type": "address"
        },
        {
          "internalType": "bool",
          "name": "existing",
          "type": "bool"
        }
      ],
      "payable": false,
      "stateMutability": "view",
      "type": "function"
    },
    {
      "constant": false,
      "inputs": [
        {
          "components": [
            {
              "internalType": "string",
              "name": "name",
              "type": "string"
            },
            {
              "internalType": "string",
              "name": "password",
              "type": "string"
            },
            {
              "internalType": "address",
              "name": "wallet_address",
              "type": "address"
            },
            {
              "internalType": "bool",
              "name": "existing",
              "type": "bool"
            }
          ],
          "internalType": "struct Auth.User",
          "name": "user",
          "type": "tuple"
        }
      ],
      "name": "register",
      "outputs": [],
      "payable": false,
      "stateMutability": "nonpayable",
      "type": "function"
    },
    {
      "constant": true,
      "inputs": [
        {
          "internalType": "string",
          "name": "name",
          "type": "string"
        },
        {
          "internalType": "string",
          "name": "password",
          "type": "string"
        }
      ],
      "name": "login",
      "outputs": [
        {
          "internalType": "address",
          "name": "",
          "type": "address"
        }
      ],
      "payable": false,
      "stateMutability": "view",
      "type": "function"
    },
    {
      "constant": true,
      "inputs": [
        {
          "internalType": "string",
          "name": "name",
          "type": "string"
        }
      ],
      "name": "exists",
      "outputs": [
        {
          "internalType": "bool",
          "name": "",
          "type": "bool"
        }
      ],
      "payable": false,
      "stateMutability": "view",
      "type": "function"
    }
  ],
  "bytecode": "0x608060405234801561001057600080fd5b50610e69806100206000396000f3fe608060405234801561001057600080fd5b506004361061004c5760003560e01c806323e3946614610051578063261a323e1461006d57806358467dbc1461009d578063689e1c03146100cd575b600080fd5b61006b60048036036100669190810190610a3f565b610100565b005b61008760048036036100829190810190610992565b61024e565b6040516100949190610c02565b60405180910390f35b6100b760048036036100b291908101906109d3565b610285565b6040516100c49190610be7565b60405180910390f35b6100e760048036036100e29190810190610951565b610553565b6040516100f79493929190610c1d565b60405180910390f35b600081600001516040516101149190610bb9565b908152602001604051809103902060020160149054906101000a900460ff1615610173576040517f08c379a000000000000000000000000000000000000000000000000000000000815260040161016a90610c90565b60405180910390fd5b600181606001901515908115158152505080600082600001516040516101999190610bb9565b908152602001604051809103902060008201518160000190805190602001906101c39291906106f6565b5060208201518160010190805190602001906101e09291906106f6565b5060408201518160020160006101000a81548173ffffffffffffffffffffffffffffffffffffffff021916908373ffffffffffffffffffffffffffffffffffffffff16021790555060608201518160020160146101000a81548160ff02191690831515021790555090505050565b6000808260405161025f9190610bd0565b908152602001604051809103902060020160149054906101000a900460ff169050919050565b600061028f610776565b60008460405161029f9190610bd0565b9081526020016040518091039020604051806080016040529081600082018054600181600116156101000203166002900480601f0160208091040260200160405190810160405280929190818152602001828054600181600116156101000203166002900480156103515780601f1061032657610100808354040283529160200191610351565b820191906000526020600020905b81548152906001019060200180831161033457829003601f168201915b50505050508152602001600182018054600181600116156101000203166002900480601f0160208091040260200160405190810160405280929190818152602001828054600181600116156101000203166002900480156103f35780601f106103c8576101008083540402835291602001916103f3565b820191906000526020600020905b8154815290600101906020018083116103d657829003601f168201915b505050505081526020016002820160009054906101000a900473ffffffffffffffffffffffffffffffffffffffff1673ffffffffffffffffffffffffffffffffffffffff1673ffffffffffffffffffffffffffffffffffffffff1681526020016002820160149054906101000a900460ff161515151581525050905080606001516104b3576040517f08c379a00000000000000000000000000000000000000000000000000000000081526004016104aa90610c70565b60405180910390fd5b826040516020016104c49190610bd0565b6040516020818303038152906040528051906020012081602001516040516020016104ef9190610bb9565b6040516020818303038152906040528051906020012014610545576040517f08c379a000000000000000000000000000000000000000000000000000000000815260040161053c90610c70565b60405180910390fd5b806040015191505092915050565b600081805160208101820180518482526020830160208501208183528095505050505050600091509050806000018054600181600116156101000203166002900480601f0160208091040260200160405190810160405280929190818152602001828054600181600116156101000203166002900480156106155780601f106105ea57610100808354040283529160200191610615565b820191906000526020600020905b8154815290600101906020018083116105f857829003601f168201915b505050505090806001018054600181600116156101000203166002900480601f0160208091040260200160405190810160405280929190818152602001828054600181600116156101000203166002900480156106b35780601f10610688576101008083540402835291602001916106b3565b820191906000526020600020905b81548152906001019060200180831161069657829003601f168201915b5050505050908060020160009054906101000a900473ffffffffffffffffffffffffffffffffffffffff16908060020160149054906101000a900460ff16905084565b828054600181600116156101000203166002900490600052602060002090601f016020900481019282601f1061073757805160ff1916838001178555610765565b82800160010185558215610765579182015b82811115610764578251825591602001919060010190610749565b5b50905061077291906107b6565b5090565b60405180608001604052806060815260200160608152602001600073ffffffffffffffffffffffffffffffffffffffff1681526020016000151581525090565b6107d891905b808211156107d45760008160009055506001016107bc565b5090565b90565b6000813590506107ea81610df8565b92915050565b6000813590506107ff81610e0f565b92915050565b600082601f83011261081657600080fd5b813561082961082482610cdd565b610cb0565b9150808252602083016020830185838301111561084557600080fd5b610850838284610da5565b50505092915050565b600082601f83011261086a57600080fd5b813561087d61087882610d09565b610cb0565b9150808252602083016020830185838301111561089957600080fd5b6108a4838284610da5565b50505092915050565b6000608082840312156108bf57600080fd5b6108c96080610cb0565b9050600082013567ffffffffffffffff8111156108e557600080fd5b6108f184828501610805565b600083015250602082013567ffffffffffffffff81111561091157600080fd5b61091d84828501610805565b6020830152506040610931848285016107db565b6040830152506060610945848285016107f0565b60608301525092915050565b60006020828403121561096357600080fd5b600082013567ffffffffffffffff81111561097d57600080fd5b61098984828501610805565b91505092915050565b6000602082840312156109a457600080fd5b600082013567ffffffffffffffff8111156109be57600080fd5b6109ca84828501610859565b91505092915050565b600080604083850312156109e657600080fd5b600083013567ffffffffffffffff811115610a0057600080fd5b610a0c85828601610859565b925050602083013567ffffffffffffffff811115610a2957600080fd5b610a3585828601610859565b9150509250929050565b600060208284031215610a5157600080fd5b600082013567ffffffffffffffff811115610a6b57600080fd5b610a77848285016108ad565b91505092915050565b610a8981610d67565b82525050565b610a9881610d79565b82525050565b6000610aa982610d40565b610ab38185610d5c565b9350610ac3818560208601610db4565b80840191505092915050565b6000610ada82610d35565b610ae48185610d4b565b9350610af4818560208601610db4565b610afd81610de7565b840191505092915050565b6000610b1382610d35565b610b1d8185610d5c565b9350610b2d818560208601610db4565b80840191505092915050565b6000610b46601983610d4b565b91507f55736572206f722070617373776f72642069732077726f6e67000000000000006000830152602082019050919050565b6000610b86601783610d4b565b91507f5573657220616c726561647920726567697374657265640000000000000000006000830152602082019050919050565b6000610bc58284610b08565b915081905092915050565b6000610bdc8284610a9e565b915081905092915050565b6000602082019050610bfc6000830184610a80565b92915050565b6000602082019050610c176000830184610a8f565b92915050565b60006080820190508181036000830152610c378187610acf565b90508181036020830152610c4b8186610acf565b9050610c5a6040830185610a80565b610c676060830184610a8f565b95945050505050565b60006020820190508181036000830152610c8981610b39565b9050919050565b60006020820190508181036000830152610ca981610b79565b9050919050565b6000604051905081810181811067ffffffffffffffff82111715610cd357600080fd5b8060405250919050565b600067ffffffffffffffff821115610cf457600080fd5b601f19601f8301169050602081019050919050565b600067ffffffffffffffff821115610d2057600080fd5b601f19601f8301169050602081019050919050565b600081519050919050565b600081519050919050565b600082825260208201905092915050565b600081905092915050565b6000610d7282610d85565b9050919050565b60008115159050919050565b600073ffffffffffffffffffffffffffffffffffffffff82169050919050565b82818337600083830152505050565b60005b83811015610dd2578082015181840152602081019050610db7565b83811115610de1576000848401525b50505050565b6000601f19601f8301169050919050565b610e0181610d67565b8114610e0c57600080fd5b50565b610e1881610d79565b8114610e2357600080fd5b5056fea365627a7a72315820e72caaebb849009cdcfbd1dea715852069aec36c41c7328b5c08d225ed3f34da6c6578706572696d656e74616cf564736f6c63430005100040",
  "source": "// SPDX-License-Identifier: GPL-3.0-or-later\n\n// pragma solidity ^0.8.14;\npragma experimental ABIEncoderV2;\n\ncontract Auth {\n    mapping(string => User) public users;\n\n    struct User {\n        string name;\n        string password;\n        address wallet_address;\n        // Operación más barata para determinar si un usuario existe\n        bool existing;\n    }\n\n    // Permite registrar un usuario al sistema\n    function register(User memory user) public {\n        require(!users[user.name].existing, \"User already registered\");\n        user.existing = true;\n        users[user.name] = user;\n    }\n\n    // Login al sistema, si funciona ok devuelve la dirección de la persona\n    function login(string memory name, string memory password)\n        public\n        view\n        returns (address)\n    {\n        User memory user = users[name];\n        require(user.existing, \"User or password is wrong\");\n        require(\n            keccak256(abi.encodePacked(user.password)) ==\n                keccak256(abi.encodePacked(password)),\n            \"User or password is wrong\"\n        );\n        return user.wallet_address;\n    }\n\n    function exists(string memory name) public view returns (bool) {\n        return users[name].existing;\n    }\n}\n",
  "sourcePath": "/home/dodain/IdeaProjects/phm-2022/intro-blockchain/truffle/contracts/Auth.sol",
  "compiler": {
    "name": "solc",
    "version": "0.5.16+commit.9c3226ce.Emscripten.clang"
  },
  "schemaVersion": "3.4.7",
  "updatedAt": "2022-05-29T04:58:52.187Z",
  "networkType": "ethereum",
  "devdoc": {
    "methods": {}
  },
  "userdoc": {
    "methods": {}
  }
}