{
  "contractName": "Auth",
  "abi": [
    {
      "constant": true,
      "inputs": [
        {
          "internalType": "string",
          "name": "",
          "type": "string"
        }
      ],
      "name": "users",
      "outputs": [
        {
          "internalType": "string",
          "name": "name",
          "type": "string"
        },
        {
          "internalType": "string",
          "name": "password",
          "type": "string"
        },
        {
          "internalType": "address",
          "name": "wallet_address",
          "type": "address"
        },
        {
          "internalType": "bool",
          "name": "existing",
          "type": "bool"
        }
      ],
      "payable": false,
      "stateMutability": "view",
      "type": "function"
    },
    {
      "constant": false,
      "inputs": [
        {
          "components": [
            {
              "internalType": "string",
              "name": "name",
              "type": "string"
            },
            {
              "internalType": "string",
              "name": "password",
              "type": "string"
            },
            {
              "internalType": "address",
              "name": "wallet_address",
              "type": "address"
            },
            {
              "internalType": "bool",
              "name": "existing",
              "type": "bool"
            }
          ],
          "internalType": "struct Auth.User",
          "name": "user",
          "type": "tuple"
        }
      ],
      "name": "register",
      "outputs": [],
      "payable": false,
      "stateMutability": "nonpayable",
      "type": "function"
    },
    {
      "constant": true,
      "inputs": [
        {
          "internalType": "string",
          "name": "name",
          "type": "string"
        },
        {
          "internalType": "string",
          "name": "password",
          "type": "string"
        }
      ],
      "name": "login",
      "outputs": [
        {
          "internalType": "bool",
          "name": "",
          "type": "bool"
        }
      ],
      "payable": false,
      "stateMutability": "view",
      "type": "function"
    },
    {
      "constant": true,
      "inputs": [
        {
          "internalType": "string",
          "name": "name",
          "type": "string"
        }
      ],
      "name": "exists",
      "outputs": [
        {
          "internalType": "bool",
          "name": "",
          "type": "bool"
        }
      ],
      "payable": false,
      "stateMutability": "view",
      "type": "function"
    },
    {
      "constant": true,
      "inputs": [
        {
          "internalType": "string",
          "name": "name",
          "type": "string"
        }
      ],
      "name": "get_address",
      "outputs": [
        {
          "internalType": "address",
          "name": "",
          "type": "address"
        }
      ],
      "payable": false,
      "stateMutability": "view",
      "type": "function"
    }
  ],
  "bytecode": "0x608060405234801561001057600080fd5b50610e13806100206000396000f3fe608060405234801561001057600080fd5b50600436106100575760003560e01c806323e394661461005c578063261a323e1461007857806358467dbc146100a8578063689e1c03146100d85780636ba44d3c1461010b575b600080fd5b61007660048036036100719190810190610a49565b61013b565b005b610092600480360361008d919081019061099c565b610289565b60405161009f9190610bcc565b60405180910390f35b6100c260048036036100bd91908101906109dd565b6102c0565b6040516100cf9190610bcc565b60405180910390f35b6100f260048036036100ed919081019061095b565b610513565b6040516101029493929190610be7565b60405180910390f35b6101256004803603610120919081019061099c565b6106b6565b6040516101329190610bb1565b60405180910390f35b6000816000015160405161014f9190610b83565b908152602001604051809103902060020160149054906101000a900460ff16156101ae576040517f08c379a00000000000000000000000000000000000000000000000000000000081526004016101a590610c3a565b60405180910390fd5b600181606001901515908115158152505080600082600001516040516101d49190610b83565b908152602001604051809103902060008201518160000190805190602001906101fe929190610700565b50602082015181600101908051906020019061021b929190610700565b5060408201518160020160006101000a81548173ffffffffffffffffffffffffffffffffffffffff021916908373ffffffffffffffffffffffffffffffffffffffff16021790555060608201518160020160146101000a81548160ff02191690831515021790555090505050565b6000808260405161029a9190610b9a565b908152602001604051809103902060020160149054906101000a900460ff169050919050565b60006102ca610780565b6000846040516102da9190610b9a565b9081526020016040518091039020604051806080016040529081600082018054600181600116156101000203166002900480601f01602080910402602001604051908101604052809291908181526020018280546001816001161561010002031660029004801561038c5780601f106103615761010080835404028352916020019161038c565b820191906000526020600020905b81548152906001019060200180831161036f57829003601f168201915b50505050508152602001600182018054600181600116156101000203166002900480601f01602080910402602001604051908101604052809291908181526020018280546001816001161561010002031660029004801561042e5780601f106104035761010080835404028352916020019161042e565b820191906000526020600020905b81548152906001019060200180831161041157829003601f168201915b505050505081526020016002820160009054906101000a900473ffffffffffffffffffffffffffffffffffffffff1673ffffffffffffffffffffffffffffffffffffffff1673ffffffffffffffffffffffffffffffffffffffff1681526020016002820160149054906101000a900460ff16151515158152505090508060600151801561050a5750826040516020016104c79190610b9a565b6040516020818303038152906040528051906020012081602001516040516020016104f29190610b83565b60405160208183030381529060405280519060200120145b91505092915050565b600081805160208101820180518482526020830160208501208183528095505050505050600091509050806000018054600181600116156101000203166002900480601f0160208091040260200160405190810160405280929190818152602001828054600181600116156101000203166002900480156105d55780601f106105aa576101008083540402835291602001916105d5565b820191906000526020600020905b8154815290600101906020018083116105b857829003601f168201915b505050505090806001018054600181600116156101000203166002900480601f0160208091040260200160405190810160405280929190818152602001828054600181600116156101000203166002900480156106735780601f1061064857610100808354040283529160200191610673565b820191906000526020600020905b81548152906001019060200180831161065657829003601f168201915b5050505050908060020160009054906101000a900473ffffffffffffffffffffffffffffffffffffffff16908060020160149054906101000a900460ff16905084565b600080826040516106c79190610b9a565b908152602001604051809103902060020160009054906101000a900473ffffffffffffffffffffffffffffffffffffffff169050919050565b828054600181600116156101000203166002900490600052602060002090601f016020900481019282601f1061074157805160ff191683800117855561076f565b8280016001018555821561076f579182015b8281111561076e578251825591602001919060010190610753565b5b50905061077c91906107c0565b5090565b60405180608001604052806060815260200160608152602001600073ffffffffffffffffffffffffffffffffffffffff1681526020016000151581525090565b6107e291905b808211156107de5760008160009055506001016107c6565b5090565b90565b6000813590506107f481610da2565b92915050565b60008135905061080981610db9565b92915050565b600082601f83011261082057600080fd5b813561083361082e82610c87565b610c5a565b9150808252602083016020830185838301111561084f57600080fd5b61085a838284610d4f565b50505092915050565b600082601f83011261087457600080fd5b813561088761088282610cb3565b610c5a565b915080825260208301602083018583830111156108a357600080fd5b6108ae838284610d4f565b50505092915050565b6000608082840312156108c957600080fd5b6108d36080610c5a565b9050600082013567ffffffffffffffff8111156108ef57600080fd5b6108fb8482850161080f565b600083015250602082013567ffffffffffffffff81111561091b57600080fd5b6109278482850161080f565b602083015250604061093b848285016107e5565b604083015250606061094f848285016107fa565b60608301525092915050565b60006020828403121561096d57600080fd5b600082013567ffffffffffffffff81111561098757600080fd5b6109938482850161080f565b91505092915050565b6000602082840312156109ae57600080fd5b600082013567ffffffffffffffff8111156109c857600080fd5b6109d484828501610863565b91505092915050565b600080604083850312156109f057600080fd5b600083013567ffffffffffffffff811115610a0a57600080fd5b610a1685828601610863565b925050602083013567ffffffffffffffff811115610a3357600080fd5b610a3f85828601610863565b9150509250929050565b600060208284031215610a5b57600080fd5b600082013567ffffffffffffffff811115610a7557600080fd5b610a81848285016108b7565b91505092915050565b610a9381610d11565b82525050565b610aa281610d23565b82525050565b6000610ab382610cea565b610abd8185610d06565b9350610acd818560208601610d5e565b80840191505092915050565b6000610ae482610cdf565b610aee8185610cf5565b9350610afe818560208601610d5e565b610b0781610d91565b840191505092915050565b6000610b1d82610cdf565b610b278185610d06565b9350610b37818560208601610d5e565b80840191505092915050565b6000610b50601783610cf5565b91507f5573657220616c726561647920726567697374657265640000000000000000006000830152602082019050919050565b6000610b8f8284610b12565b915081905092915050565b6000610ba68284610aa8565b915081905092915050565b6000602082019050610bc66000830184610a8a565b92915050565b6000602082019050610be16000830184610a99565b92915050565b60006080820190508181036000830152610c018187610ad9565b90508181036020830152610c158186610ad9565b9050610c246040830185610a8a565b610c316060830184610a99565b95945050505050565b60006020820190508181036000830152610c5381610b43565b9050919050565b6000604051905081810181811067ffffffffffffffff82111715610c7d57600080fd5b8060405250919050565b600067ffffffffffffffff821115610c9e57600080fd5b601f19601f8301169050602081019050919050565b600067ffffffffffffffff821115610cca57600080fd5b601f19601f8301169050602081019050919050565b600081519050919050565b600081519050919050565b600082825260208201905092915050565b600081905092915050565b6000610d1c82610d2f565b9050919050565b60008115159050919050565b600073ffffffffffffffffffffffffffffffffffffffff82169050919050565b82818337600083830152505050565b60005b83811015610d7c578082015181840152602081019050610d61565b83811115610d8b576000848401525b50505050565b6000601f19601f8301169050919050565b610dab81610d11565b8114610db657600080fd5b50565b610dc281610d23565b8114610dcd57600080fd5b5056fea365627a7a723158202a620ea346b2ec223efa45d8ceb03496868521253de53228cc49c5d490e376b86c6578706572696d656e74616cf564736f6c63430005100040",
  "source": "// SPDX-License-Identifier: GPL-3.0-or-later\n\n// pragma solidity ^0.8.14;\npragma experimental ABIEncoderV2;\n\ncontract Auth {\n    mapping(string => User) public users;\n\n    struct User {\n        string name;\n        string password;\n        address wallet_address;\n        // Operación más barata para determinar si un usuario existe\n        bool existing;\n    }\n\n    // Permite registrar un usuario al sistema\n    function register(User memory user) public {\n        require(!users[user.name].existing, \"User already registered\");\n        user.existing = true;\n        users[user.name] = user;\n    }\n\n    // Login al sistema, devuelve si funciona ok/nok\n    function login(string memory name, string memory password) public view returns (bool) {\n        User memory user = users[name];\n        return user.existing && \n            keccak256(abi.encodePacked(user.password)) ==\n                keccak256(abi.encodePacked(password));\n    }\n\n    function exists(string memory name) public view returns (bool) {\n        return users[name].existing;\n    }\n\n    function get_address(string memory name) public view returns (address) {\n        return users[name].wallet_address;\n    }\n}\n",
  "sourcePath": "/home/dodain/IdeaProjects/phm-2022/intro-blockchain/truffle/contracts/Auth.sol",
  "compiler": {
    "name": "solc",
    "version": "0.5.16+commit.9c3226ce.Emscripten.clang"
  },
  "schemaVersion": "3.4.7",
  "updatedAt": "2022-05-30T23:22:01.165Z",
  "networkType": "ethereum",
  "devdoc": {
    "methods": {}
  },
  "userdoc": {
    "methods": {}
  }
}