{
  "contractName": "Wallet",
  "abi": [
    {
      "constant": true,
      "inputs": [
        {
          "name": "",
          "type": "address"
        }
      ],
      "name": "wallet",
      "outputs": [
        {
          "name": "",
          "type": "int256"
        }
      ],
      "payable": false,
      "stateMutability": "view",
      "type": "function"
    },
    {
      "constant": false,
      "inputs": [
        {
          "name": "owner",
          "type": "address"
        },
        {
          "name": "howMuch",
          "type": "int256"
        }
      ],
      "name": "put",
      "outputs": [],
      "payable": false,
      "stateMutability": "nonpayable",
      "type": "function"
    },
    {
      "constant": false,
      "inputs": [
        {
          "name": "owner",
          "type": "address"
        },
        {
          "name": "howMuch",
          "type": "int256"
        }
      ],
      "name": "withdraw",
      "outputs": [],
      "payable": false,
      "stateMutability": "nonpayable",
      "type": "function"
    }
  ],
  "bytecode": "0x608060405234801561001057600080fd5b50610493806100206000396000f3fe608060405260043610610057576000357c0100000000000000000000000000000000000000000000000000000000900463ffffffff1680637da7d3f11461005c578063a56cc439146100b7578063b129a94e1461011c575b600080fd5b34801561006857600080fd5b506100b56004803603604081101561007f57600080fd5b81019080803573ffffffffffffffffffffffffffffffffffffffff16906020019092919080359060200190929190505050610177565b005b3480156100c357600080fd5b50610106600480360360208110156100da57600080fd5b81019080803573ffffffffffffffffffffffffffffffffffffffff16906020019092919050505061031f565b6040518082815260200191505060405180910390f35b34801561012857600080fd5b506101756004803603604081101561013f57600080fd5b81019080803573ffffffffffffffffffffffffffffffffffffffff16906020019092919080359060200190929190505050610337565b005b80600081131515610216576040517f08c379a000000000000000000000000000000000000000000000000000000000815260040180806020018281038252603a8152602001807f456c2076616c6f722061207361636172206f20706f6e657220656e206c61206281526020017f696c6c657465726120646562652073657220706f73697469766f00000000000081525060400191505060405180910390fd5b60008060008573ffffffffffffffffffffffffffffffffffffffff1673ffffffffffffffffffffffffffffffffffffffff1681526020019081526020016000205490508281121515156102d1576040517f08c379a000000000000000000000000000000000000000000000000000000000815260040180806020018281038252601a8152602001807f4e6f2068617920737566696369656e746520656665637469766f00000000000081525060200191505060405180910390fd5b8281039050806000808673ffffffffffffffffffffffffffffffffffffffff1673ffffffffffffffffffffffffffffffffffffffff1681526020019081526020016000208190555050505050565b60006020528060005260406000206000915090505481565b806000811315156103d6576040517f08c379a000000000000000000000000000000000000000000000000000000000815260040180806020018281038252603a8152602001807f456c2076616c6f722061207361636172206f20706f6e657220656e206c61206281526020017f696c6c657465726120646562652073657220706f73697469766f00000000000081525060400191505060405180910390fd5b60008060008573ffffffffffffffffffffffffffffffffffffffff1673ffffffffffffffffffffffffffffffffffffffff1681526020019081526020016000205490508281019050806000808673ffffffffffffffffffffffffffffffffffffffff1673ffffffffffffffffffffffffffffffffffffffff168152602001908152602001600020819055505050505056fea165627a7a72305820f4a5bafc0ebaab40925f6d5a5d35ddf39ac5b0ce52de5d8ea21e226b3c5997a70029",
  "source": "pragma solidity ^0.5.0;\n\n/**\n * Smart contract que representa una billetera virtual\n */\ncontract Wallet {\n    // mapa\n    //   clave => una dirección de Ethereum que representa una persona física\n    //   valor => $$$ que tiene\n    mapping (address => int256) public wallet;\n\n    // validación general para poner o sacar\n    modifier positive(int256 value) {\n        require(value > 0, \"El valor a sacar o poner en la billetera debe ser positivo\");\n        _;\n    }\n\n    // poner plata en la billetera\n    function put(address owner, int256 howMuch) public positive(howMuch) {\n        int256 money = wallet[owner];  // por defecto es 0\n        money = money + howMuch;\n        wallet[owner] = money;\n    }\n\n    // sacar plata de la billetera\n    function withdraw(address owner, int256 howMuch) public positive(howMuch) {\n        int256 money = wallet[owner];  // por defecto es 0\n        require(money >= howMuch, \"No hay suficiente efectivo\");\n        money = money - howMuch;\n        wallet[owner] = money;\n    }\n\n}",
  "sourcePath": "/home/fernando/workspace/blockchain-2019/intro-blockchain/truffle/contracts/Wallet.sol",
  "compiler": {
    "name": "solc",
    "version": "0.5.0+commit.1d4f565a.Emscripten.clang"
  },
  "schemaVersion": "3.0.1",
  "updatedAt": "2019-02-22T02:37:03.211Z",
  "devdoc": {
    "methods": {}
  },
  "userdoc": {
    "methods": {},
    "notice": "Smart contract que representa una billetera virtual"
  }
}