{
  "contractName": "Wallet",
  "abi": [
    {
      "constant": true,
      "inputs": [
        {
          "name": "",
          "type": "address"
        }
      ],
      "name": "wallet",
      "outputs": [
        {
          "name": "",
          "type": "int256"
        }
      ],
      "payable": false,
      "stateMutability": "view",
      "type": "function",
      "signature": "0xa56cc439"
    },
    {
      "constant": false,
      "inputs": [
        {
          "name": "owner",
          "type": "address"
        },
        {
          "name": "howMuch",
          "type": "int256"
        }
      ],
      "name": "put",
      "outputs": [],
      "payable": false,
      "stateMutability": "nonpayable",
      "type": "function",
      "signature": "0xb129a94e"
    },
    {
      "constant": false,
      "inputs": [
        {
          "name": "owner",
          "type": "address"
        },
        {
          "name": "howMuch",
          "type": "int256"
        }
      ],
      "name": "withdraw",
      "outputs": [],
      "payable": false,
      "stateMutability": "nonpayable",
      "type": "function",
      "signature": "0x7da7d3f1"
    }
  ],
  "bytecode": "0x608060405234801561001057600080fd5b50610447806100206000396000f3fe608060405260043610610057576000357c0100000000000000000000000000000000000000000000000000000000900463ffffffff1680637da7d3f11461005c578063a56cc439146100b7578063b129a94e1461011c575b600080fd5b34801561006857600080fd5b506100b56004803603604081101561007f57600080fd5b81019080803573ffffffffffffffffffffffffffffffffffffffff16906020019092919080359060200190929190505050610177565b005b3480156100c357600080fd5b50610106600480360360208110156100da57600080fd5b81019080803573ffffffffffffffffffffffffffffffffffffffff1690602001909291905050506102f9565b6040518082815260200191505060405180910390f35b34801561012857600080fd5b506101756004803603604081101561013f57600080fd5b81019080803573ffffffffffffffffffffffffffffffffffffffff16906020019092919080359060200190929190505050610311565b005b806000811315156101f0576040517f08c379a00000000000000000000000000000000000000000000000000000000081526004018080602001828103825260168152602001807f56616c7565206d75737420626520706f7369746976650000000000000000000081525060200191505060405180910390fd5b60008060008573ffffffffffffffffffffffffffffffffffffffff1673ffffffffffffffffffffffffffffffffffffffff1681526020019081526020016000205490508281121515156102ab576040517f08c379a000000000000000000000000000000000000000000000000000000000815260040180806020018281038252600f8152602001807f4e6f7420656e6f7567682063617368000000000000000000000000000000000081525060200191505060405180910390fd5b8281039050806000808673ffffffffffffffffffffffffffffffffffffffff1673ffffffffffffffffffffffffffffffffffffffff1681526020019081526020016000208190555050505050565b60006020528060005260406000206000915090505481565b8060008113151561038a576040517f08c379a00000000000000000000000000000000000000000000000000000000081526004018080602001828103825260168152602001807f56616c7565206d75737420626520706f7369746976650000000000000000000081525060200191505060405180910390fd5b60008060008573ffffffffffffffffffffffffffffffffffffffff1673ffffffffffffffffffffffffffffffffffffffff1681526020019081526020016000205490508281019050806000808673ffffffffffffffffffffffffffffffffffffffff1673ffffffffffffffffffffffffffffffffffffffff168152602001908152602001600020819055505050505056fea165627a7a7230582005becff8e16d96f9005931010315ccc15dc8f5bb089a45d741a1d40e30d358800029",
  "source": "pragma solidity ^0.5.0;\n\n/**\n * Smart contract que representa una billetera virtual\n */\ncontract Wallet {\n    // mapa\n    //   clave => una dirección de Ethereum que representa una persona física\n    //   valor => $$$ que tiene\n    mapping (address => int256) public wallet;\n\n    // validación general para poner o sacar\n    modifier positive(int256 value) {\n        require(value > 0, \"Value must be positive\");\n        _;\n    }\n\n    // poner plata en la billetera\n    function put(address owner, int256 howMuch) public positive(howMuch) {\n        int256 money = wallet[owner];  // por defecto es 0\n        money = money + howMuch;\n        wallet[owner] = money;\n    }\n\n    // sacar plata de la billetera\n    function withdraw(address owner, int256 howMuch) public positive(howMuch) {\n        int256 money = wallet[owner];  // por defecto es 0\n        require(money >= howMuch, \"Not enough cash\");\n        money = money - howMuch;\n        wallet[owner] = money;\n    }\n\n}",
  "sourcePath": "/home/fernando/workspace/blockchain-2019/intro-blockchain/truffle/contracts/Wallet.sol",
  "compiler": {
    "name": "solc",
    "version": "0.5.0+commit.1d4f565a.Emscripten.clang"
  },
  "schemaVersion": "3.0.1",
  "updatedAt": "2019-02-23T03:12:09.397Z",
  "devdoc": {
    "methods": {}
  },
  "userdoc": {
    "methods": {},
    "notice": "Smart contract que representa una billetera virtual"
  }
}