{
  "contractName": "Wallet",
  "abi": [
    {
      "constant": true,
      "inputs": [
        {
          "name": "",
          "type": "address"
        }
      ],
      "name": "wallet",
      "outputs": [
        {
          "name": "",
          "type": "int256"
        }
      ],
      "payable": false,
      "stateMutability": "view",
      "type": "function",
      "signature": "0xa56cc439"
    },
    {
      "constant": false,
      "inputs": [
        {
          "name": "howMuch",
          "type": "int256"
        }
      ],
      "name": "put",
      "outputs": [],
      "payable": false,
      "stateMutability": "nonpayable",
      "type": "function",
      "signature": "0xf84c854a"
    },
    {
      "constant": false,
      "inputs": [
        {
          "name": "howMuch",
          "type": "int256"
        }
      ],
      "name": "withdraw",
      "outputs": [],
      "payable": false,
      "stateMutability": "nonpayable",
      "type": "function",
      "signature": "0x7e62eab8"
    }
  ],
  "bytecode": "0x608060405234801561001057600080fd5b506102b6806100206000396000f3fe608060405260043610610057576000357c0100000000000000000000000000000000000000000000000000000000900463ffffffff1680637e62eab81461005c578063a56cc43914610097578063f84c854a146100fc575b600080fd5b34801561006857600080fd5b506100956004803603602081101561007f57600080fd5b8101908080359060200190929190505050610137565b005b3480156100a357600080fd5b506100e6600480360360208110156100ba57600080fd5b81019080803573ffffffffffffffffffffffffffffffffffffffff1690602001909291905050506101e3565b6040518082815260200191505060405180910390f35b34801561010857600080fd5b506101356004803603602081101561011f57600080fd5b81019080803590602001909291905050506101fb565b005b3073ffffffffffffffffffffffffffffffffffffffff1663f84c854a7fffffffffffffffffffffffffffffffffffffffffffffffffffffffffffffffff83026040518263ffffffff167c010000000000000000000000000000000000000000000000000000000002815260040180828152602001915050600060405180830381600087803b1580156101c857600080fd5b505af11580156101dc573d6000803e3d6000fd5b5050505050565b60006020528060005260406000206000915090505481565b60008060003373ffffffffffffffffffffffffffffffffffffffff1673ffffffffffffffffffffffffffffffffffffffff1681526020019081526020016000205490508181019050806000803373ffffffffffffffffffffffffffffffffffffffff1673ffffffffffffffffffffffffffffffffffffffff16815260200190815260200160002081905550505056fea165627a7a7230582021915a6955aef46c60d07091ebee8385258472471ee2c5c435bc1e816604968a0029",
  "source": "pragma solidity ^0.5.0;\n\n/**\n * Smart contract que representa una billetera virtual\n */\ncontract Wallet {\n    // mapa\n    //   clave => una dirección de Ethereum que representa una persona física\n    //   valor => $$$ que tiene\n    mapping (address => int256) public wallet;\n\n    modifier positive(int256 value) {\n        require(value > 0, \"El valor a sacar o poner en la billetera debe ser positivo\");\n        _;\n    }\n\n    // poner plata en la billetera\n    function put(int256 howMuch) public \n        // positive(howMuch)\n        {\n        int256 money = wallet[msg.sender];  // por defecto es 0\n        money = money + howMuch;\n        wallet[msg.sender] = money;\n    }\n\n    // sacar plata de la billetera\n    function withdraw(int256 howMuch) public \n        //positive(howMuch) \n        {\n        //int256 money = wallet[msg.sender];  // por defecto es 0\n        //require(money >= howMuch, \"No hay suficiente efectivo\");\n            // podríamos pensar que le falta decir cuánto hay de efectivo, \n            // 1) solidity no trae todavía funciones para concatenar strings\n            // 2) deberíamos utilizar alguna biblioteca como \n            //    https://stackoverflow.com/questions/32157648/string-concatenation-in-solidity\n            // 3) pero lo más importante, es una operación que consume gas, por lo tanto\n            //    hay que tener en cuenta pros y contras: mensaje representativo vs. un contrato\n            //    que requiere más dinero para ejecutarse\n            // De la misma manera si bien estamos reutilizando la función put, hay una línea\n            // duplicada en withdraw y en put, la que se fija cuál es el valor actual de la billetera\n        this.put(howMuch * (-1));\n    }\n\n}",
  "sourcePath": "/home/fernando/workspace/blockchain-2019/intro-blockchain/truffle/contracts/Wallet.sol",
  "compiler": {
    "name": "solc",
    "version": "0.5.0+commit.1d4f565a.Emscripten.clang"
  },
  "schemaVersion": "3.0.1",
  "updatedAt": "2019-02-20T02:29:58.251Z",
  "devdoc": {
    "methods": {}
  },
  "userdoc": {
    "methods": {},
    "notice": "Smart contract que representa una billetera virtual"
  }
}