{
  "contractName": "Wallet",
  "abi": [
    {
      "constant": true,
      "inputs": [
        {
          "name": "",
          "type": "address"
        }
      ],
      "name": "wallet",
      "outputs": [
        {
          "name": "",
          "type": "int256"
        }
      ],
      "payable": false,
      "stateMutability": "view",
      "type": "function",
      "signature": "0xa56cc439"
    },
    {
      "constant": false,
      "inputs": [
        {
          "name": "owner",
          "type": "address"
        },
        {
          "name": "howMuch",
          "type": "int256"
        }
      ],
      "name": "put",
      "outputs": [],
      "payable": false,
      "stateMutability": "nonpayable",
      "type": "function",
      "signature": "0xb129a94e"
    },
    {
      "constant": false,
      "inputs": [
        {
          "name": "owner",
          "type": "address"
        },
        {
          "name": "howMuch",
          "type": "int256"
        }
      ],
      "name": "withdraw",
      "outputs": [],
      "payable": false,
      "stateMutability": "nonpayable",
      "type": "function",
      "signature": "0x7da7d3f1"
    },
    {
      "constant": true,
      "inputs": [
        {
          "name": "owner",
          "type": "address"
        }
      ],
      "name": "balance",
      "outputs": [
        {
          "name": "",
          "type": "int256"
        }
      ],
      "payable": false,
      "stateMutability": "view",
      "type": "function",
      "signature": "0xe3d670d7"
    }
  ],
  "bytecode": "0x608060405234801561001057600080fd5b506104ff806100206000396000f3fe608060405260043610610062576000357c0100000000000000000000000000000000000000000000000000000000900463ffffffff1680637da7d3f114610067578063a56cc439146100c2578063b129a94e14610127578063e3d670d714610182575b600080fd5b34801561007357600080fd5b506100c06004803603604081101561008a57600080fd5b81019080803573ffffffffffffffffffffffffffffffffffffffff169060200190929190803590602001909291905050506101e7565b005b3480156100ce57600080fd5b50610111600480360360208110156100e557600080fd5b81019080803573ffffffffffffffffffffffffffffffffffffffff169060200190929190505050610369565b6040518082815260200191505060405180910390f35b34801561013357600080fd5b506101806004803603604081101561014a57600080fd5b81019080803573ffffffffffffffffffffffffffffffffffffffff16906020019092919080359060200190929190505050610381565b005b34801561018e57600080fd5b506101d1600480360360208110156101a557600080fd5b81019080803573ffffffffffffffffffffffffffffffffffffffff16906020019092919050505061048b565b6040518082815260200191505060405180910390f35b80600081131515610260576040517f08c379a00000000000000000000000000000000000000000000000000000000081526004018080602001828103825260168152602001807f56616c7565206d75737420626520706f7369746976650000000000000000000081525060200191505060405180910390fd5b60008060008573ffffffffffffffffffffffffffffffffffffffff1673ffffffffffffffffffffffffffffffffffffffff16815260200190815260200160002054905082811215151561031b576040517f08c379a000000000000000000000000000000000000000000000000000000000815260040180806020018281038252600f8152602001807f4e6f7420656e6f7567682063617368000000000000000000000000000000000081525060200191505060405180910390fd5b8281039050806000808673ffffffffffffffffffffffffffffffffffffffff1673ffffffffffffffffffffffffffffffffffffffff1681526020019081526020016000208190555050505050565b60006020528060005260406000206000915090505481565b806000811315156103fa576040517f08c379a00000000000000000000000000000000000000000000000000000000081526004018080602001828103825260168152602001807f56616c7565206d75737420626520706f7369746976650000000000000000000081525060200191505060405180910390fd5b60008060008573ffffffffffffffffffffffffffffffffffffffff1673ffffffffffffffffffffffffffffffffffffffff1681526020019081526020016000205490508281019050806000808673ffffffffffffffffffffffffffffffffffffffff1673ffffffffffffffffffffffffffffffffffffffff1681526020019081526020016000208190555050505050565b60008060008373ffffffffffffffffffffffffffffffffffffffff1673ffffffffffffffffffffffffffffffffffffffff16815260200190815260200160002054905091905056fea165627a7a72305820c53d92b4cb7f1e688fc9baeb0d02e256509c8b99b3d30daaec3baf86d99d18080029",
  "source": "pragma solidity ^0.5.0;\n\n/**\n * Smart contract que representa una billetera virtual\n */\ncontract Wallet {\n    // mapa\n    //   clave => una dirección de Ethereum que representa una persona física\n    //   valor => $$$ que tiene\n    mapping (address => int256) public wallet;\n\n    // validación general para poner o sacar\n    modifier positive(int256 value) {\n        require(value > 0, \"Value must be positive\");\n        _;\n    }\n\n    // poner plata en la billetera\n    function put(address owner, int256 howMuch) public positive(howMuch) {\n        int256 money = wallet[owner];  // por defecto es 0\n        money = money + howMuch;\n        wallet[owner] = money;\n    }\n\n    // sacar plata de la billetera\n    function withdraw(address owner, int256 howMuch) public positive(howMuch) {\n        int256 money = wallet[owner];  // por defecto es 0\n        require(money >= howMuch, \"Not enough cash\");\n        money = money - howMuch;\n        wallet[owner] = money;\n    }\n\n    function balance(address owner) public view returns(int256) {\n        return wallet[owner];\n    }\n}",
  "sourcePath": "/home/fernando/workspace/blockchain-2019/intro-blockchain/truffle/contracts/Wallet.sol",
  "compiler": {
    "name": "solc",
    "version": "0.5.0+commit.1d4f565a.Emscripten.clang"
  },
  "schemaVersion": "3.0.1",
  "updatedAt": "2019-03-02T15:00:54.478Z",
  "devdoc": {
    "methods": {}
  },
  "userdoc": {
    "methods": {},
    "notice": "Smart contract que representa una billetera virtual"
  }
}