{
  "contractName": "Wallet",
  "abi": [
    {
      "constant": true,
      "inputs": [],
      "name": "money",
      "outputs": [
        {
          "name": "",
          "type": "int256"
        }
      ],
      "payable": false,
      "stateMutability": "view",
      "type": "function",
      "signature": "0x4ddd108a"
    },
    {
      "constant": false,
      "inputs": [
        {
          "name": "howMuch",
          "type": "int256"
        }
      ],
      "name": "put",
      "outputs": [],
      "payable": false,
      "stateMutability": "nonpayable",
      "type": "function",
      "signature": "0xf84c854a"
    },
    {
      "constant": false,
      "inputs": [
        {
          "name": "howMuch",
          "type": "int256"
        }
      ],
      "name": "withdraw",
      "outputs": [],
      "payable": false,
      "stateMutability": "nonpayable",
      "type": "function",
      "signature": "0x7e62eab8"
    }
  ],
  "bytecode": "0x60806040526000805534801561001457600080fd5b5061014b806100246000396000f3fe608060405260043610610057576000357c0100000000000000000000000000000000000000000000000000000000900463ffffffff1680634ddd108a1461005c5780637e62eab814610087578063f84c854a146100c2575b600080fd5b34801561006857600080fd5b506100716100fd565b6040518082815260200191505060405180910390f35b34801561009357600080fd5b506100c0600480360360208110156100aa57600080fd5b8101908080359060200190929190505050610103565b005b3480156100ce57600080fd5b506100fb600480360360208110156100e557600080fd5b8101908080359060200190929190505050610111565b005b60005481565b806000540360008190555050565b80600054016000819055505056fea165627a7a723058206198569550bff27b38c07a5a7afa3f0d797f4cef4223499a697bd344b3ba03de0029",
  "source": "pragma solidity ^0.5.0;\n\ncontract Wallet {\n    int256 public money = 0;\n\n    function put(int howMuch) public {\n        money = money + howMuch;\n    }\n\n    function withdraw(int howMuch) public {\n        money = money - howMuch;\n    }\n\n}",
  "sourcePath": "/home/fernando/workspace/blockchain-2019/rates/truffle/contracts/Wallet.sol",
  "compiler": {
    "name": "solc",
    "version": "0.5.0+commit.1d4f565a.Emscripten.clang"
  },
  "schemaVersion": "3.0.1",
  "updatedAt": "2019-02-06T12:26:03.061Z",
  "devdoc": {
    "methods": {}
  },
  "userdoc": {
    "methods": {}
  }
}