{
  "contractName": "Wallet",
  "abi": [
    {
      "constant": true,
      "inputs": [
        {
          "internalType": "address",
          "name": "",
          "type": "address"
        }
      ],
      "name": "wallet",
      "outputs": [
        {
          "internalType": "int256",
          "name": "",
          "type": "int256"
        }
      ],
      "payable": false,
      "stateMutability": "view",
      "type": "function"
    },
    {
      "constant": false,
      "inputs": [
        {
          "internalType": "address",
          "name": "owner",
          "type": "address"
        },
        {
          "internalType": "int256",
          "name": "howMuch",
          "type": "int256"
        }
      ],
      "name": "put",
      "outputs": [],
      "payable": false,
      "stateMutability": "nonpayable",
      "type": "function"
    },
    {
      "constant": false,
      "inputs": [
        {
          "internalType": "address",
          "name": "owner",
          "type": "address"
        },
        {
          "internalType": "int256",
          "name": "howMuch",
          "type": "int256"
        }
      ],
      "name": "withdraw",
      "outputs": [],
      "payable": false,
      "stateMutability": "nonpayable",
      "type": "function"
    },
    {
      "constant": true,
      "inputs": [
        {
          "internalType": "address",
          "name": "owner",
          "type": "address"
        }
      ],
      "name": "balance",
      "outputs": [
        {
          "internalType": "int256",
          "name": "",
          "type": "int256"
        }
      ],
      "payable": false,
      "stateMutability": "view",
      "type": "function"
    }
  ],
  "bytecode": "0x608060405234801561001057600080fd5b506104b8806100206000396000f3fe608060405234801561001057600080fd5b506004361061004c5760003560e01c80637da7d3f114610051578063a56cc4391461009f578063b129a94e146100f7578063e3d670d714610145575b600080fd5b61009d6004803603604081101561006757600080fd5b81019080803573ffffffffffffffffffffffffffffffffffffffff1690602001909291908035906020019092919050505061019d565b005b6100e1600480360360208110156100b557600080fd5b81019080803573ffffffffffffffffffffffffffffffffffffffff16906020019092919050505061031b565b6040518082815260200191505060405180910390f35b6101436004803603604081101561010d57600080fd5b81019080803573ffffffffffffffffffffffffffffffffffffffff16906020019092919080359060200190929190505050610333565b005b6101876004803603602081101561015b57600080fd5b81019080803573ffffffffffffffffffffffffffffffffffffffff16906020019092919050505061043b565b6040518082815260200191505060405180910390f35b8060008113610214576040517f08c379a00000000000000000000000000000000000000000000000000000000081526004018080602001828103825260168152602001807f56616c7565206d75737420626520706f7369746976650000000000000000000081525060200191505060405180910390fd5b60008060008573ffffffffffffffffffffffffffffffffffffffff1673ffffffffffffffffffffffffffffffffffffffff168152602001908152602001600020549050828112156102cd576040517f08c379a000000000000000000000000000000000000000000000000000000000815260040180806020018281038252600f8152602001807f4e6f7420656e6f7567682063617368000000000000000000000000000000000081525060200191505060405180910390fd5b8281039050806000808673ffffffffffffffffffffffffffffffffffffffff1673ffffffffffffffffffffffffffffffffffffffff1681526020019081526020016000208190555050505050565b60006020528060005260406000206000915090505481565b80600081136103aa576040517f08c379a00000000000000000000000000000000000000000000000000000000081526004018080602001828103825260168152602001807f56616c7565206d75737420626520706f7369746976650000000000000000000081525060200191505060405180910390fd5b60008060008573ffffffffffffffffffffffffffffffffffffffff1673ffffffffffffffffffffffffffffffffffffffff1681526020019081526020016000205490508281019050806000808673ffffffffffffffffffffffffffffffffffffffff1673ffffffffffffffffffffffffffffffffffffffff1681526020019081526020016000208190555050505050565b60008060008373ffffffffffffffffffffffffffffffffffffffff1673ffffffffffffffffffffffffffffffffffffffff16815260200190815260200160002054905091905056fea265627a7a72315820aafbb8f9752cbe3b8c1f4468248e68588ca3594f2b7a33cfb3474a0a86190bf564736f6c63430005100032",
  "source": "pragma solidity ^0.5.16;\n\n/**\n * Smart contract que representa una billetera virtual\n */\ncontract Wallet {\n    // mapa\n    //   clave => una dirección de Ethereum que representa una persona física\n    //   valor => $$$ que tiene\n    mapping(address => int256) public wallet;\n    \n    // validación general para poner o sacar\n    modifier positive(int256 value) {\n        require(value > 0, \"Value must be positive\");\n        _;\n    }\n\n    // poner plata en la billetera\n    function put(address owner, int256 howMuch) public positive(howMuch) {\n        int256 money = wallet[owner]; // por defecto es 0\n        money = money + howMuch;\n        wallet[owner] = money;\n    }\n\n    // sacar plata de la billetera\n    function withdraw(address owner, int256 howMuch) public positive(howMuch) {\n        int256 money = wallet[owner]; // por defecto es 0\n        require(money >= howMuch, \"Not enough cash\");\n        money = money - howMuch;\n        wallet[owner] = money;\n    }\n\n    function balance(address owner) public view returns (int256) {\n        return wallet[owner];\n    }\n\n    // TODO: ver qué plugin existe para medir el gas de cada transacción\n}",
  "sourcePath": "/home/dodain/workspace/phm-2021/intro-blockchain/truffle/contracts/Wallet.sol",
  "compiler": {
    "name": "solc",
    "version": "0.5.16+commit.9c3226ce.Emscripten.clang"
  },
  "schemaVersion": "3.4.1",
  "updatedAt": "2021-05-31T23:31:52.698Z",
  "networkType": "ethereum",
  "devdoc": {
    "methods": {}
  },
  "userdoc": {
    "methods": {},
    "notice": "Smart contract que representa una billetera virtual"
  }
}